:020000040800F2
:10000000B8850020A9470008A1440008A3440008BF
:10001000A5440008A7440008A94400080000000007
:10002000000000000000000000000000AB440008D9
:10003000AD44000800000000AF440008B1440008CF
:10004000C9470008CD470008D1470008D547000838
:10005000D9470008DD470008E1470008E5470008E8
:10006000E9470008ED470008F1470008F547000898
:10007000F9470008FD470008014800080548000846
:10008000094800080D4800081148000815480008F4
:10009000194800081D4800082148000825480008A4
:1000A000294800082D480008314800083548000854
:1000B000394800083D480008414800084548000804
:1000C000494800084D4800085148000855480008B4
:1000D000594800085D480008614800086548000864
:1000E000C1440008694800086D48000871480008CC
:1000F00075480008794800087D48000881480008D4
:1001000085480008894800088D4800089148000883
:1001100095480008994800089D480008B542000825
:10012000A1480008A5480008A9480008AD480008F3
:10013000B1480008B5480008B9480008BD480008A3
:10014000C1480008C5480008C9480008CD48000853
:10015000D1480008D548000849400008D94800089F
:10016000DD480008E1480008E5480008E9480008C3
:10017000ED480008F1480008F548000800000000BC
:10018000F9480008FD480008014900080549000831
:10019000094900080D490008114900080000000045
:1001A00015490008194900081D49000840F02000C1
:1001B00070472DE9F14FB0B0924604910DF1420124
:1001C0003A9A2B9199464A7000200AE01AF8011BCE
:1001D0000498309A90470028049000F043860D98C8
:1001E000401C0D909AF8000050B12528EED1002255
:1001F00000210792089109920A910B920C9104E058
:100200000D9800F031BE41F001011AF8010F2028CD
:10021000F9D023280CD02B2804D02D2805D0302845
:1002200009D00BE041F00201EFE741F00401ECE7F7
:1002300041F00801E9E741F01001E6E72A280FD173
:10024000D9F8002052F8040BC9F8002000280F90BC
:1002500003D540420F9041F004010AF1010A14E075
:100260000F92DFF80C0C0AE00F9C844205DA04EBD5
:10027000840302EB4302303A0F920AF1010A9AF822
:100280000020A2F130030A2BEED39AF800202E2A88
:1002900003D04FF0FF300E9029E01AF8010F2A2802
:1002A00009D1D9F8002052F8040BC9F800200E90AB
:1002B0000AF1010A1BE02D280CBF0AF1010A0020F7
:1002C00000220E92DFF8A85B0BE040B90E9BAB4218
:1002D00005DA03EB830402EB4402303A0E920AF192
:1002E000010A9AF80020A2F130030A2BEDD3ADF8F1
:1002F00040100FF680309AF8001000F0FBFE08B1B5
:100300001AF8010B8DF842009DF84200682805D1CB
:100310009AF8001068290CD1622006E06C2804BF0E
:100320009AF800106C2904D171208DF842000AF16E
:10033000010A12AA06921AF801BBBBF125002CD0C3
:100340001C3800F09781001F022840F29381133877
:1003500000F0BA84093800F08D81801E00F04F85CE
:10036000401E00F0FC84401E022840F28381001FE2
:1003700000F0F584401F00F0F280401E00F0A484DD
:10038000401E00F0DA80C01E0ED0801E00F09C845B
:10039000C01E00F0998400F03DBD01222521079286
:1003A0008DF8481000F042BDD9F8000050F8044B19
:1003B000C9F80000002C059440F0AB802B994878D8
:1003C000002800F0A1804FF0FF340FF6B02000F0BD
:1003D0009DFE241A40F0468500F028BD01236A46A0
:1003E00002A9304600F00CFE002840F03B85641E58
:1003F000F4D13096079C12AE74B1309F16F8011BF1
:100400000498B8470028049000F02C850D98401CF3
:10041000641E0D90F2D130970A9C3021002C8DF88B
:1004200000100CDD309E01236A4602A9304600F020
:10043000E7FD002840F01685641EF4D13096059E35
:10044000089C74B1309F16F8011B0498B847002827
:10045000049000F007850D98401C641E0D90F2D1A9
:1004600030970B9C3021002C8DF800100CDD309E55
:1004700001236A4602A9304600F0C2FD002840F080
:10048000F184641EF4D1309605980899099C4618A9
:1004900074B1309F16F8011B0498B84700280490E7
:1004A00000F0E0840D98401C641E0D90F2D130974E
:1004B0000C9C3021002C8DF800100CDD309E0123A7
:1004C0006A4602A9304600F09BFD002840F0CA842D
:1004D000641EF4D130969DF8400041077FF582AE4E
:1004E0002020002D8DF800007FF77CAE309C01238A
:1004F0006A4602A9204600F083FD002840F0B2843D
:100500006D1EF4D130946DE60FF65430059000F076
:100510008DBC0E9D002D04D5204600F017FE04462C
:1005200008E02A460021204600F02CFE002814BFD7
:10053000041B2C46089400F079BCD9F8001051F83F
:10054000040BC9F8001020F00002002121F0FF3355
:10055000CDE9022312AC0594782100F04CBC2B9914
:10056000487820B14FF0FF340FF6C4202FE79DF8F4
:100570004200622860D0682817D06A283FD06C28D3
:1005800006D0712847D074282CD07A281DD062E07C
:10059000D9F8001051F8040BC9F80010002866D1F2
:1005A0004FF0FF340FF6A02011E7D9F8001051F8F2
:1005B000040BC9F8001020B94FF0FF340FF6882063
:1005C00005E70D99018000F031BCD9F8001051F811
:1005D000040BC9F80010002849D14FF0FF340FF682
:1005E0006820F4E6D9F8001051F8040BC9F800109F
:1005F00000283CD14FF0FF340FF64C20E7E6D9F845
:10060000001051F8040BC9F8001080B94FF0FF3406
:100610000FF63420DBE6D9F8001051F8040BC9F8C6
:10062000001020B94FF0FF340FF61C20CFE60D9AD2
:10063000D317C0E90023F9E3D9F8001051F8040BEF
:10064000C9F8001020B94FF0FF340FF6FC10BEE6D9
:100650000D990170EAE3D9F8001051F8040BC9F8BC
:10066000001020B94FF0FF340FF6DC10AFE60D9903
:100670000160DBE39DF842004C2807BFD9F8001069
:10068000CA1DD9F80000C21D22F00702C9F80020D7
:10069000D2E900010832C9F80020CDE90201C80FF3
:1006A00002D007982D210AE0BDF84010880702D536
:1006B00007982B2103E0C80705D50798202112AA27
:1006C0001154401C079012A807994BF0200300EB2F
:1006D000010CDDE90201CDE92C01612BCDF814C03C
:1006E00021AC0BD00E98002848BF062105D404BFCA
:1006F0004BF02000672801D101210E91DDE902674E
:100700007B0043EAD6735A15DB174FF0FF30834264
:1007100008BF824210D13F0347EA16573603002F25
:1007200008BF002E08D0ABF1610503211A2D0891F6
:1007300018D30FF6341110E0DDE902014A0052151A
:1007400012F1010F11D108030FD1ABF161050321A3
:100750001A2D08911FD30FF618110322604600F0DE
:100760003DFD63E30FF6FC01F7E7DDE902016A46B0
:1007700000F088FDCDE902014BF02000612811D185
:10078000059830220270811C0591BBF1610F0CBFEE
:100790007821582102E00FF6D401DEE74170079876
:1007A000801C0790DDE9020120F0000231F00043D7
:1007B00008BF002A02D10026002542E14BF02008A4
:1007C000B8F1610F40F093800E98002847BF2121B7
:1007D0000191401C0190019EDDE92C01761C002254
:1007E0000023DDE9024500F085FD38BF85F00045B6
:1007F00000988DF88420001F002E00900DF18507D1
:1008000032DD204629460022002300F08DFD2BD248
:100810001C2200F0A3FD04460D4600F03DFEF61F2D
:10082000002E804609DD00F053FE02460B462046AE
:10083000294600F015FF04460D46F81D0721B8F1C2
:10084000000F0CDD491E5EBF08F00F0200F8012DFD
:100850004FEA2818F3D502E0002200F8012D491EC6
:10086000FAD5C71D002ECCDC0DF185003F1A01988A
:100870000DF185043E468742C8BF0646002E2FD4A0
:10088000BE4206DA0DF18500815D0829A8BF0F2060
:1008900000DA0020324621A98D1800E0761E15F8F6
:1008A0000139521E8342F9D00F2804D10DF1850180
:1008B000885C401C8854002A04D50098001D21AC97
:1008C000761C0090701E0BD421180B783033DAB2EE
:1008D0003A2AA4BF5B443A3B401E01F80139F4D5E3
:1008E0000E99002940F1AC80701E0E90A8E000998E
:1008F000DFF8FC2647F29750414391FBF2F2009259
:10090000DDE92C45C2F10702002A25F0004504DD8F
:100910002046294600F049FB0BE052420020DFF858
:10092000D41600F042FB02460B462046294600F052
:1009300009FF04460D46B8F1660F06BF009E0A3651
:1009400006260E983618142EC8BF142630208DF8AF
:1009500084000DF18507002E34DD2046294601F084
:1009600015F801460A4607F1080C04200A27B2FBD5
:10097000F7FE0EEB8E03A2EB430230320CF8012C93
:100980000A22BEFBF2F202EB8203AEEB43033033EA
:10099000401E0CF8023DE9D1083E002E0CF108077C
:1009A000D9DD084601F004F802460B4620462946E8
:1009B00000F056FE0022DFF8403601F007F804464A
:1009C0000D46CAE70DF185003F1A0DF1850404E0DC
:1009D0000098401E7F1E0090641C20783028F7D0BD
:1009E000B8F1660F02D1009E761C04E0B8F1650FE5
:1009F0000CBF012600260E983618B742B8BF7E1EDF
:100A0000002E1DD4BE4204DAA05D3428C8BF3920B0
:100A100000DC30203246611E8D1800E0761E15F88D
:100A20000179521E8742F9D0392802D1A05C401CBE
:100A3000A054002A04D50098401C0C46761C009057
:100A4000009D01F099F8406A0778DDF8388030B2EF
:100A5000002802DC01260FF21C644BF020006628FF
:100A600008BF6D1C16D0672845D128B210F1040FBD
:100A700047DB404545DA9DF840106D1C080703D45C
:100A800030B24045D8BF804628B2B8EB000848BF16
:100A90004FF000080FFA85FBBBF1000F00F3B380A5
:100AA0000898411C0891302205990A54B8F1000FAA
:100AB00003DC9DF84010080704D50898411C0891F4
:100AC00005990F5418EB0B0FB8BFC8F100052DB2F4
:100AD0006842454432B20B909542B8BF2E46059B02
:100AE000089836B2099632462146184400F076FB43
:100AF000AD1B0C95D1E0BBF1610F17D14FF0700B1E
:100B000019E030B2404504DA9DF840100A0758BF9A
:100B10008046B8F1010848BF4FF00008BBF1670FED
:100B200014BF4FF0450B4FF0650B04E0BBF1410FD4
:100B300008BF4FF0500B0898411C0891B8F1000F06
:100B4000059914F8012B0A5403DC9DF8401008079E
:100B50001AD50898411C0891B8F1000F05990F5457
:100B600012DD761E30B28045B8BF46460598089B18
:100B700032B22146184400F031FB089836B23018E2
:100B80000890A8EB06000B9005980899014428B23C
:100B9000002881F800B003D42B204870891C04E0A1
:100BA0002D224A700546891C6D4200202CAA0AE0BD
:100BB0002B460A2593FBF5F505EB8504A3EB4403CF
:100BC00002F8013B401C2DB2002DF1DC012806DCAF
:100BD0004BF02002652A04BF302201F8012B0028C7
:100BE0002CAB08D1302001F8010B06E0401E1A5C46
:100BF000303201F8012B0028F8DC059A08981044DF
:100C0000091A099149E031B228B281421CDA059BE8
:100C1000089832B22146184400F0E0FA089936B23A
:100C200071180891ABEB0600B8F1000F0B9003DCD4
:100C30009DF84000020704D5059847540999491CBE
:100C40000991CDF8308028E0059B08982AB221460A
:100C5000184400F0C3FA0898761B5844B8F1000F06
:100C6000089003DC9DF840100A0703D5411C089149
:100C700005990F5430B28045B8BF46460598089B89
:100C800032B204EB0B01184400F0A8FA089836B20F
:100C900030180890A8EB06000B909DF8400000F07B
:100CA0001400102840F0C280079A08980B99821807
:100CB00009988A1882180C980F998018884280F237
:100CC000B580081A0A90B1E09DF84200622808D069
:100CD00068280ED06A2814D06C281FD0712810D034
:100CE0001CE0D9F8001051F8040BC9F80010C0B28C
:100CF0001AE0D9F8001051F8040BC9F8001080B2BE
:100D000012E0D9F80000C21D22F00702C9F8002045
:100D1000D2E900010832C9F8002006E0D9F8001035
:100D200051F8040BC9F800100021CDE902019DF82B
:100D3000400002075AD5DDE90201002908BF00285A
:100D400054D04BF02002782A50D1079912A83023B2
:100D50004354491C4A1C079200F801B046E09DF834
:100D60004200622808D068280ED06A2814D06C2867
:100D70001FD0712810D01CE0D9F8001051F8040BD6
:100D8000C9F8001040B21AE0D9F8001051F8040B6D
:100D9000C9F8001000B212E0D9F80000C21D22F01C
:100DA0000702C9F80020D2E900010832C9F8002082
:100DB00006E0D9F8001051F8040BC9F80010C1176B
:100DC000CDE90201002902D507982D220AE0BDF8DD
:100DD0004000810702D507982B2203E0C00705D504
:100DE0000798202212A90A54401C079012A80799BC
:100DF00001440591594602A800F04EF816E0012082
:100E00000790D9F8001051F8040BC9F800108DF8BC
:100E100048000BE001222521BBF1000F07928DF85D
:100E2000481003D0022007908DF849B00F9D079815
:100E30000A992D1A08986D1A0B992D1A09986D1A8E
:100E40000C992D1A9DF840006D1A41073FF5D2AA62
:100E50002020002D8DF800007FF7CCAA309E2C4674
:100E6000FFF7BCBA4FF0FF3031B0BDE8F08F0000A3
:100E7000CBCCCC0C686A6C747A4C00007072696ED2
:100E800074665F733A206261642025732061726723
:100E9000756D656E740000002DE9FE4C06468B46AC
:100EA000376958466F2808BF082205D0FFF77EF93A
:100EB000782814BF0A221022D6E900013C250446F6
:100EC0008A46BBF1640F18BFBBF1690F04D100293A
:100ED00002D564426AEB4A0ABAF1000F08BF002C3F
:100EE0000CD1306B50B9082A3BD196F8381008075E
:100EF00037D530213B2587F83B1032E08DF800B024
:100F00009346204651465A46002300F039FE3032BF
:100F1000D0B26D1E3A2801950DDA7A552046514619
:100F20005A46002300F02CFE04465FEA010A08BF7F
:100F3000002C05D108E09DF800001218513AECE7AA
:100F4000F16878198142DCD3BBF1080F09D196F81A
:100F50003800010705D5785D302802D06D1E30209D
:100F60007855C5F13C02306BB26179198242F1606B
:100F700007DA318F821A4FF6EF7001403262318703
:100F800010E000280ED596F8380000F01400102864
:100F900008D1736B7069316A1B1A5B1A9B1A002B9C
:100FA000C8BF336203B0BDE8F08C2DE9D0430646DC
:100FB0000F4614464FF00008DFF8409012E0E007BB
:100FC00007D542464B463046394600F0FFFC064600
:100FD0000F464046494642464B4600F0F7FC641037
:100FE00080468946002CEAD130463946BDE8D08398
:100FF000A08601000000F03F84D797410000244004
:10100000F8B505460E4617461C4600205CB117F899
:10101000011BB068A847B06030B1F06A401CF062B4
:101020000020641EF3D1F2BD4FF0FF30F2BD00008E
:101030007072696E74665F733A20256E20646973FE
:10104000616C6C6F776564007072696E74663A20CB
:1010500062616420256E20617267756D656E740033
:10106000000000006E616E004E414E00696E660029
:10107000494E46003000F0B40246106895681318D7
:10108000506803EB5004C00748BF4D44A3422DD025
:1010900013F8016B16F0030004BF13F8010BC01C1A
:1010A00031090F2907D113F8011B0F3103E013F8A1
:1010B000017B05F8017B401EF9D10029E6D013F829
:1010C000010BC6F38107032F08BF13F8017B00EB68
:1010D0000720404228440026B71E8F421EBF10F84A
:1010E000017B05F8017B761CF6D1CFE7F0BC02F15D
:1010F0000C007047C9B202788A421AB11CBF10F8BE
:10110000012FF9E718BF002070472E0080B500B905
:1011100006A005490B681BB122220021984701E077
:1011200000F046FE222002BDAC650020636F6E73A6
:10113000747261696E742068616E646C65723A20C5
:10114000626164206D6573736167650000F101037E
:10115000810704D010F8011B820781B1FAD102681F
:10116000A2F10131914311F0803104BF50F8042FF6
:10117000F6E709BAB1FA81F100EBD100401CC01AC0
:1011800070470000C9B2830706D0521E22D310F860
:10119000013B9942F7D11FE0083A13D302F1040250
:1011A00041EA012141EA014150F8043B121F21BFED
:1011B0004B40A3F1013C2CEA030C1CF0803FF3D020
:1011C000C9B2001F083210F8013B521E28BF91EA35
:1011D000030FF8D818BF0120401E704762B38B0779
:1011E00008D0521E11F8013B00F8013B00F02480AA
:1011F0008B07F6D1830740F0208000BF103A07D359
:1012000030B4B1E83810103AA0E83810F9D230BC48
:10121000530724BFB1E80810A0E8081044BF51F8F4
:10122000043B40F8043BD20724BF31F8022B20F8DE
:10123000022B44BF0B7803707047121F17D35B005B
:1012400009D151F8043B20F8023B1B0C121F20F877
:10125000023BF6D20BE051F8043B00F8013B1B0ABD
:1012600020F8023B1B0C121F00F8013BF3D238BFE1
:10127000121D521E24BF11F8013B00F8013BF8D8A3
:101280007047000010B5144600F002F8226010BD4F
:10129000C1F30A5343B14A0012F5001F28D2A3F24A
:1012A000FE32A1EB0251704750EA410C20D001F010
:1012B000004C31EA0C01B1FA81F204BFB0FA80F3BC
:1012C000D2180B3AB2F120032CBF00FA03F191407F
:1012D00041EA0C013EBFC2F1200C20FA0CF3194385
:1012E0009040524240F2FD33D21A01EB0351704755
:1012F0000022704741EA030C50EA4C0C52EA0C0CF5
:101300004FF4001C09D307D01CEB410F9CBF1CEB12
:10131000430F8B4208BF824270471CEB430FFBD840
:10132000994208BF9042704741EA030C50EA4C0CC6
:1013300052EA0C0C4FF4001C09D307D01CEB410FF0
:101340009CBF1CEB430F994208BF904270471CEBB7
:10135000410FFBD88B4208BF82427047124254D4DF
:1013600040F2FF7C1CEA11530FD0634531D09B182B
:1013700063453CBF01EB0251704701F0004141EA77
:101380000C510020AFF30080704750EA410320D099
:1013900001F0004C91EA0C011CD0B1FA81F30B3B37
:1013A0009A420DD9D21A994051EA0C01C3F1200C8E
:1013B00020FA0CFC61449840531C40F2FF7CD7E7B4
:1013C000914041EA0C01C2F1200C20FA0CF31943C0
:1013D00090407047B0FA80F31533202BE0D3202AD9
:1013E000EED3203A203B9A4209D9D21A00FA03F1EF
:1013F00041EA0C010020531C40F2FF7CB8E700FAE0
:1014000002F141EA0C0100207047524240F2FF7C99
:101410001CEA11530DD06345DBD0B2EB030C3CBF8B
:10142000A1EB025170470CF1010221EA035141F492
:10143000801150EA410CCCD001F0004C352A27DC59
:1014400030B481EA0C01B2F1200309DAC2F12003C1
:10145000044601FA03F5D0402843D1409C400CE0FB
:10146000C3F12002450020FA03F418BF44F0010440
:1014700021FA03F091400C43002174F1004550F132
:10148000000051EB0C01244230BC7FF47BAF70476D
:101490006146002076E70000C1F30A5340F21E4285
:1014A000D31A0CDDCA0283F3070342EA505242F01A
:1014B0000042DA4002EBE17282EAE17070476FEAC3
:1014C000E17203F2E13008B182F0004070470000A1
:1014D00010F0004160B148BF4042B0FA80F2904045
:1014E000D21CC2F5846241EA025202EBD0214005CF
:1014F00070470000841A71EB030604D26E40001B93
:10150000B141121973414FF4001C1CEB410F34BF61
:101510007CEB430683E00C0DA4EB1356362E00F350
:101520007C80012E45EAC32341DC43EA525312BFBB
:10153000D20292025B08240545EAC12141EA5051DA
:10154000D2EBC020994125D407D1B0FA80F610FA29
:1015500006F162D00020203608E0B1FA81F6B140F1
:10156000C6F1200220FA02F21143B0404FEAF474AF
:10157000B4EB465434F001064FEA74040AD8D6F5A9
:101580000016760D04F00044F04061FA06F2504077
:10159000F1404840C00A40EA415021F0004128BFD4
:1015A0005FEA500550F1000044EBD12135E0DB0A41
:1015B00045EAC121C90AB6F120050EDD42EA024220
:1015C000120CC5F1200603FA06F6EB4042EA0605C6
:1015D0006D42984161F100010DE062FA06F5F240BA
:1015E000554063FA06FC82EA0C02F3405A406D4211
:1015F000904161EB030111F4801F05D1641E620567
:1016000002D06D004041494121F48011430875F139
:10161000004350F1000041EB045170BC70471CEBDB
:10162000410F15D223F0004352EA43060BD04FEA94
:101630004C0CBCEB410F04D80C0D661E342EB7DDEC
:10164000EBE7801A994150EA410608BF0021E4E720
:1016500008BF1CEB430F28BF6FF00001DDE700005F
:1016600070B491EA030F4FF000457FF543AF6B4034
:10167000841A71EB030603D2001BB14112197341A6
:101680004FF4001C1CEB410F34BF7CEB430442E0E1
:101690000C0DA4EB1356352E4FDC45EAC323DB0AB1
:1016A00045EAC121C912B6F120050DDD63FA05F640
:1016B000EB4086EA0305124218BF45F00105C01849
:1016C00051F100010CD213E062FA06F5F2405540E8
:1016D000F3415A40B340F3405A408018594107D370
:1016E00049085FEA30005FEA350528BF45F001058B
:1016F00001F58011420875F1004250F1000041EB04
:1017000004514E0016F5001F70BC38BF7047002012
:10171000090D090570471CEB410F10D252EA430630
:101720000BD0BCEB410F05D80C0DAB43661E342E1D
:10173000B6DD02E0AB438018594170BC704770BC05
:1017400070470000F0B540F2FF7581EA030C0CF021
:10175000004C15EA11541DBF15EA1357AC42AF42B5
:10176000E5E0BC41C1F31301C3F31303801A9941AF
:1017700043F4801304D2641E001849418018594173
:10178000C90241EA5051B1FBF3F603FB1611A2FB6B
:101790000675D7EBC020A94102D2761E80185941A8
:1017A000C90241EA5051B1FBF3FE03FB1E11A2FB3B
:1017B0000E75D7EBC020A94103D2AEF1010E8018FF
:1017C0005941890241EA9051760546EA8E2EB1FBD5
:1017D000F3F603FB1611A2FB0675D7EB8020A94197
:1017E00002D2761E80185941C90241EA50514EEA90
:1017F000060EB1FBF3F603FB1611A2FB0675D7EB41
:10180000C020A94102D2761E80185941C90241EA7E
:101810005051B1FBF3F703FB1711A2FB0735D3EBD4
:10182000C020A94167F100070CBF004247F0010743
:1018300066F3D5274FEA1E31B80814F5806412DD2F
:10184000BD0775F1004250EB0E5051EB045111F5FC
:10185000801F5CBF41EA0C01F0BD4CF07F6141F09C
:10186000E0410020F0BDBD076D0840EA0E5041F494
:101870008011D4F10104B4F120060ADAC4F1200683
:101880000200E04001FA06F3E1401843B24015437C
:101890000EE0342C13DCC6F1200445EA40056D0847
:1018A00020FA06F2154321FA06F0A1400D4300216B
:1018B00075F1004250F1000051EB0C01F0BD002029
:1018C0005FEA0C01F0BDCFB992185B41B3FA83F720
:1018D00004BFB2FA82F6BF190B3FB7F120062FBF43
:1018E00002FA06F3BB40C7F1200622FA06F638BF1B
:1018F0003343BA401CB1E419641E33E77F4231F030
:101900000041B1FA81F404BFB0FA80F6A4190B3C8F
:10191000B4F120062FBF00FA06F1A140C4F1200661
:1019200020FA06F638BF3143A0403C1B1AE7AC4210
:101930001ABF05EA1357AF4212E050EA41061CBF36
:1019400052EA4306BFE750EA4107304661461CBFF2
:1019500041EA0551F0BD52EA430C08BFC143F0BD56
:1019600000204FF4001616EB410F98BF16EB430F03
:1019700008BF16EB410F24BFC14305E016EB430F30
:101980000CBF61464CEA0551F0BD0000400D40F22D
:101990001E4C40EAC120BCEB115C40F0004003D477
:1019A0008CF30701C84070476FEAE1707047000090
:1019B00050B1B0FA80F18840C91CC1F584610905B5
:1019C00001EBD021400570470146704730B540F229
:1019D000FF7C1CEA11541DBF1CEA13556445654584
:1019E0003FE0641981EA030C6FF35F530CF0004C85
:1019F00043F48013C90241F0004141EA505EC50240
:101A00001100A5FB020200284FF00000EEFB0120B0
:101A10004FF00001E3FB052118BF42F0010240181E
:101A200000214941E3FB0E01A4F580640D0302D2BD
:101A300092184041494154F1010470DD450872F1AA
:101A4000004250F1000051EB0451A1F5801102D485
:101A500041EA0C0130BD40F2FF7E4CEA0E510020FD
:101A600030BD0CEA1355644518BF654581EA030C87
:101A70000CF0004C41D050EA410E1CBF52EA430E1C
:101A800002E06146002030BD24422C441BD15FEAB5
:101A9000050EF6D0090302BF01460020AEF1140E78
:101AA000B1FA81F5AEEB050401FA05FE0C35C5F17E
:101AB000200100FA05F5C8404EEA000E6FF35F53AF
:101AC00043F480139CE733F00043B3FA83F504BF7B
:101AD000B2FA82FE75440B3D641BB5F1200E2FBF98
:101AE00002FA0EF3AB40C5F1200E22FA0EFE38BF0B
:101AF00043EA0E03AA40641C7CE750EA410E14BF7F
:101B000052EA430E6FF000014FF4001515EB430F3E
:101B10008EBF194615EB410F9DE7B4D830BDD4F107
:101B20000104B4F120050FDAC4F12005520828BFE2
:101B300042F0010210FA05FE01FA05F57244E2BF17
:101B4000E0402843E1400FE0352C9ADCC5F1200449
:101B500052EA400220FA05F218BF42F0010231FABF
:101B600005F0A1400A43002172F1004250F100004B
:101B700051EB0C0130BD00000048704718000020F8
:101B8000BBBBE1B1B2F5803F80F07E80022A1ED956
:101B90008C46B1FBF2F102FB11C31B0443EA104374
:101BA000B3FBF2FC02FB1C3380B240EA0343B3FBFD
:101BB000F2F002FB103240EA0C4000237047022A88
:101BC00005D98446B0FBF2F002FB10C270474AB15F
:101BD00005D100F0010249085FEA30007047002299
:101BE0000023704700F0E8B80B000200002100203D
:101BF0007047904271EB030CF6D3B3F5803F2FD2C0
:101C0000F0B5B3FA83F7B1FA81F4A7F10F0E3D1BDB
:101C10005340CEF1200602FA0EF2F3415340B5F1E3
:101C20000F0746D80F3C2C444140C4F12006A04089
:101C3000F1414140B1FBF3F603FB1611A2FB06454F
:101C4000001BA94102D2761E8018594180EA010288
:101C500021FA0EF362FA0EF200215A403046F0BD2E
:101C600030B4B1FBF3FC03FB1C11A2FB0C45001BC1
:101C7000A94103D2ACF1010C8018594130BC024695
:101C80000B46604600217047B2F1807F65D3F0B506
:101C9000B2FA82F7B1FA81F4C7F10F063D1B22FABE
:101CA00006F307F1110EF24120355A40B5F10F0746
:101CB000B8D94140C4F12006A040F1414140B1FBF8
:101CC000F3FC03FB1C11A2FB0C45001BA94103D232
:101CD000BCF1010C801859410F2F12D30F3FC903DB
:101CE00041EA5041B1FBF3F603FB1611A2FB064596
:101CF000D4EBC030A94102D2761E8018594146EA81
:101D0000CC3C07B34140C7F12006B840F141414007
:101D1000B1FBF3F603FB1611A2FB0645001BA9411C
:101D200002D2761E8018594180EA010221FA0EF390
:101D3000C7F1200462FA0EF20CFA07F05A402CFAAE
:101D400004F13043F0BD80EA010221FA0EF30021D4
:101D500062FA0EF260465A40F0BD8C46B1FBF2F1D9
:101D600002FB11C31B0243EA1063B3FBF2FC02FB4C
:101D70001C331B024CEA002043EA1063B3FBF2FC65
:101D800002FB1C331B024CEA002043EA1063B3FB46
:101D9000F2FC02FB1C331B024CEA002043EA1063F6
:101DA000B3FBF2FC02FB1C324CEA0020002370471C
:101DB000012000F003B800007047000080B5AFF3C9
:101DC0000080024A11001820ABBEFBE7260002008B
:101DD0000000000000000000000000000000000003
:101DE00000001818181818181818181818180000D3
:101DF000363624241200000000000000000000001D
:101E0000004824247E2424242424247E2424120014
:101E100010107C521212161C70505050527E10102E
:101E20000000464A29291A16685894945262000004
:101E300000001C342414140C4A527262D21C00009C
:101E4000060604040200000000000000000000007C
:101E50002030101808080C0C0C0C08081810302042
:101E6000040C0818101030303030101018080C0412
:101E700000000000185A763838765A180000000022
:101E800000000018181818187E18181818000000FC
:101E9000000000000000000000000006060404022C
:101EA000000000000000007E0000000000000000B4
:101EB0000000000000000000000000000606000016
:101EC00040404020201010100808040402020200C4
:101ED000003824664242424242424266243C0000AC
:101EE00000181E101010101010101010101000000C
:101EF000003C266240602030180C0406027E000080
:101F0000003C62604060203C60404040623C000019
:101F100000303038282C24242222FF2020200000EA
:101F2000007C060606063A2660404060221C00003F
:101F30000030180C04063A664642424664380000F7
:101F4000007E42626220203030101010181800000D
:101F5000003C26624266241866424242663C00000B
:101F6000001C262262626262665C602030180400F7
:101F70000000001818000000000018180000000001
:101F800000000018180000000000181810080000D9
:101F90000000000060100C030C1060000000000046
:101FA0000000000000007E00007E00000000000035
:101FB00000000000061830C03018060000000000C5
:101FC000003C6642406020101018080018180000FD
:101FD000001C24427A6A65656555766A02643C0095
:101FE000001818183C242424247E424242C30000D6
:101FF000003E62624262221E62424242623E000033
:102000000038440602020202020202064C380000B6
:10201000001E22624242C2C2C2424262221E00002E
:10202000007E06060606063E06060606067E00003A
:10203000007C04040404047C04040404040400007C
:10204000003844060202020272424242645C00000E
:10205000004242424242427E4242424242420000EA
:10206000003C18181818181818181818183C0000F0
:10207000003030303030303030303030131E00001F
:1020800000422232121A0A1E161222226242000056
:10209000000404040404040404040404047C000094
:1020A00000C3C3A5A5A7E7E7DBDBDBDBC3C30000F9
:1020B000004646464E4A5A525272626262420000DE
:1020C000003C24424242C2C3C2424242243C00007D
:1020D000003E6646464646663E0606060606000082
:1020E000001C2462424242424242527264DC0000BE
:1020F000003E62424262621E12222262424200009E
:10210000003C460202060C1870604042623C00002F
:1021100000FE1818181818181818181818180000A1
:10212000004242424242424242424242663C000037
:102130000042424266642424243C18181818000007
:10214000008199DBDB5A5A5A5A6666666666000059
:1021500000426624243C1818183C246642420000C1
:10216000004242662424181818181818181800007D
:10217000007E602030101818080C0406027E000053
:102180007C0C0C0C0C0C0C0C0C0C0C0C0C0C0C7CAF
:10219000004266242438187E18187E18181800008B
:1021A0003E30303030303030303030303030303E13
:1021B00000183C6600000000000000000000000065
:1021C000000000000000000000000000000000FF10
:1021D000000C1810000000000000000000000000CB
:1021E00000000000003C62407C464262625C0000ED
:1021F00000020202023A664642424246663A000045
:1022000000000000003844060202020644380000C4
:1022100000404040405C666242424262665C0000B0
:1022200000000000001C2466627E02026438000088
:1022300000700808083E0808080808080808000098
:1022400000000000005C66424242665C4040623C26
:1022500000020202023A6A664242424242420000E0
:102260000018180000181818181818181818000066
:1022700000181800001818181818181818180C0644
:1022800000020202026232121A1632226242000078
:1022900000080808080808080808080808380000A6
:1022A00000000000006F5BDBDBDBDBDBDBDB000067
:1022B00000000000003A666642424242424200008C
:1022C00000000000003C644242424242643C000084
:1022D00000000000003A664642424246663A020268
:1022E00000000000005C666242424262665C404060
:1022F000000000000064140C0C0C0C0C0C0C000012
:1023000000000000003C04060C386040623C000005
:1023100000000808087E08080808080808380000B7
:10232000000000000042424242424266565C000009
:1023300000000000004266662424241818180000DB
:10234000000000000081DBDB5A5A6666666600000A
:1023500000000000006624241818182466420000BB
:102360000000000000424664242C381818080806B3
:1023700000000000003E203010080804067E000027
:10238000601010101010180C0C1810101010107095
:10239000101010101010101010101010101010103D
:1023A0000E08080808081830301808080808080639
:1023B00000007E000000000000000000000000009F
:1023C00070B418220B00DBB202FB030310330C00C5
:1023D000E4B202FB040410342468640864001C6046
:1023E0000C00E4B202FB04041034002323600C0050
:1023F000E4B202FB04041434002323600C00E4B2B2
:1024000002FB04041834002323600C00E4B202FB36
:1024100004041C34002323600C00E4B202FB040417
:102420002034002323600B00DBB202FB03022432C2
:10243000212313600A00D2B2042A13DA10F1080231
:1024400013683D240D00EDB206260A00D2B2C2F395
:102450004002920006FB0525AC40234310F1080220
:10246000136013E0091F10F10C0213683D240D00E6
:10247000EDB206260A00D2B2C2F34002920006FB79
:102480000525AC40234310F10C02136070BC70476B
:1024900070B418240B00DBB204FB030324330D00DB
:1024A000EDB204FB050524352D6835F004051D60EB
:1024B0000D00EDB204FB0505183513682B600D0007
:1024C000EDB204FB05051C3593682B600D00EDB2E1
:1024D00004FB05051435D3692B600B00DBB204FB4C
:1024E000030310331D68424B1D4013691D431369DC
:1024F00055EA8305136A1D4393691D430B00DBB244
:1025000004FB030310331D605368002B0ED10B0036
:10251000DBB204FB030310330E00F6B204FB060625
:102520001036366856F400761E601FE05368012BA3
:102530000ED10B00DBB204FB030310330E00F6B226
:1025400004FB06061036366836F400761E600DE091
:102550000B00DBB204FB030310330E00F6B204FBE6
:1025600006061036366856F400461E60D368002B07
:102570000ED10B00DBB204FB030310330E00F6B2E6
:1025800004FB06061036366856F480661E600DE0C1
:102590000B00DBB204FB030310330E00F6B204FBA6
:1025A00006061036366836F480661E605369002BC6
:1025B0000ED10B00DBB204FB030310330E00F6B2A6
:1025C00004FB06041034246854F480741C600DE08D
:1025D0000B00DBB204FB030310330E00F6B204FB66
:1025E00006041034246834F480741C6070BC704796
:1025F0003F87FCFF10B418240A00D2B204FB020289
:1026000010320B00DBB204FB03041034236833F4F4
:102610008073136010BC704710B418240A00D2B243
:1026200004FB020210320B00DBB204FB0304103483
:10263000236853F00103136010BC704710B41824D2
:102640000A00D2B204FB020210320B00DBB204FB20
:102650000304103423685B085B00136010BC7047F0
:1026600030B418230C00E4B203FB040410342468D3
:1026700034F060641500EDB254EA45640D00EDB22B
:1026800003FB050310331C6030BC7047F0B5050038
:102690000B001400002100221E001800C0B2042804
:1026A00080F29E802000012808D0042823D008282A
:1026B0003ED0102859D0202874D090E02F689C4636
:1026C0005FFA8CFC5FF0060E1800C0B2C0F3400049
:1026D00080000EFB0C0C14FA0CFC1CEA07073A00F5
:1026E0001F00FFB2182000FB07572437386810F08E
:1026F0008000010017E12F689C465FFA8CFC5FF0B8
:10270000060E1800C0B2C0F3400080000EFB0C0C97
:1027100014FA0CFC1CEA07073A001F00FFB218204D
:1027200000FB07571037386810F002000100FAE08C
:102730002F689C465FFA8CFC5FF0060E1800C0B252
:10274000C0F3400080000EFB0C0C14FA0CFC1CEAD9
:1027500007073A001F00FFB2182000FB0757103789
:10276000386810F004000100DDE02F689C465FFA35
:102770008CFC5FF0060E1800C0B2C0F34000800071
:102780000EFB0C0C14FA0CFC1CEA07073A001F00A5
:10279000FFB2182000FB07571037386810F0080008
:1027A0000100C0E02F689C465FFA8CFC5FF0060ECB
:1027B0001800C0B2C0F3400080000EFB0C0C14FAED
:1027C0000CFC1CEA07073A001F00FFB2182000FBB0
:1027D00007571037386810F010000100A3E0A2E09E
:1027E000361F2000012808D0042824D0082840D013
:1027F00010285CD0202878D095E0281D0768B446C2
:102800005FFA8CFC5FF0060E3000C0B2C0F34000EF
:1028100080000EFB0C0C14FA0CFC1CEA07073A00B3
:102820001F00FFB2182000FB07572437386810F04C
:102830008000010077E0281D0768B4465FFA8CFC31
:102840005FF0060E3000C0B2C0F3400080000EFB07
:102850000C0C14FA0CFC1CEA07073A001F00FFB22C
:10286000182000FB07571037386810F002000100ED
:1028700059E0281D0768B4465FFA8CFC5FF0060E2D
:102880003000C0B2C0F3400080000EFB0C0C14FA04
:102890000CFC1CEA07073A001F00FFB2182000FBDF
:1028A00007571037386810F0040001003BE0281D7E
:1028B0000768B4465FFA8CFC5FF0060E3000C0B2C9
:1028C000C0F3400080000EFB0C0C14FA0CFC1CEA58
:1028D00007073A001F00FFB2182000FB0757103708
:1028E000386810F0080001001DE0281D0768B44694
:1028F0005FFA8CFC5FF0060E3000C0B2C0F34000FF
:1029000080000EFB0C0C14FA0CFC1CEA07073A00C2
:102910001F00FFB2182000FB07571037386810F06F
:1029200010000100FFE7002A03D0002901D0012098
:1029300000E00020F0BD70B40B00DBB2042B13DA12
:1029400010F108031C680D00EDB206260B00DBB287
:10295000C3F340039B0006FB053512FA05F52C4333
:1029600010F108031C6013E0091F10F10C031C6830
:102970000D00EDB206260B00DBB2C3F340039B0053
:1029800006FB053512FA05F52C4310F10C031C600B
:1029900070BC7047DFF8D0030068704710B5FFF7D0
:1029A000F9FFDFF8C8130A68821A642A04D20A24DD
:1029B000DFF8BC331C6003E01E24DFF8B4331C6076
:1029C000086010BD38B504002000C0B20A2807DB3B
:1029D0002000C0B2332812DB2000C0B250280EDA2B
:1029E0001F2000F0AFFA1F2000904FF6E073220086
:1029F000D2B292B20421242000F008FB21E0200092
:102A0000C0B250280FDB4FF6E075280000F09AFAAC
:102A100000954FF478432200D2B292B204212420D0
:102A200000F0F4FA0DE0002000F08CFA0020009095
:102A30004FF6FF732200D2B292B20421242000F09C
:102A4000E5FA31BD2DE9F84F5FF00008C94C4FF4AD
:102A50008041200000F0AEFB05004FF40051200043
:102A600000F0A8FB06008DF80050370041F20E1070
:102A700000F0F0FB00220221282000F094FC0E213F
:102A8000012000F0FFFC002200214FF4804000F004
:102A900049FD4FF4804000F08DFD0D21012000F034
:102AA000F1FC002200214FF4005000F03BFD4FF4F8
:102AB000005000F07FFD4FF48051B04800F07AFBE9
:102AC000002801D0012100E00021AD48017000780C
:102AD000002840F0D3804FF48041200000F06AFBD2
:102AE00005004FF40051200000F064FB06002900AF
:102AF0009DF80000C9B2814205D130003900C0B252
:102B0000C9B2884265D0FFF745FFB0EB080098498D
:102B1000096881425DD2FFF73DFF804629009DF89C
:102B20000000C9B2814226D02800C0B2012810D1CD
:102B30003000C0B2002804D192490878401C0870C7
:102B400017E090490878002813D00878401E0870D4
:102B50000FE03000C0B2012804D18A490878401C37
:102B6000087006E087490878002802D00878401EDF
:102B700008708DF8005031003800C9B2C0B28142EF
:102B800025D03000C0B2012810D12800C0B20028E2
:102B900004D17C480178491E017017E07949087812
:102BA000002813D00878401C08700FE02800C0B23D
:102BB000012804D173480178491E017006E071496B
:102BC0000878002802D00878401C08703700FFF70A
:102BD000E5FEDFF8B0B19BF80000FFF7F3FE9BF8CD
:102BE000000080B200F00EFD9BF800000A2807DB11
:102BF0009BF8000033281FDB9BF8000050281BDAED
:102C0000DFF86491D9F80000B0F57A7F31D3DFF8AE
:102C100078A14FF48051504600F0C4FAD9F8000072
:102C2000B0F57F7F25D34FF48051504600F0BEFAB7
:102C30001420C9F800001CE09BF80000502818DBA5
:102C4000DFF824A1DAF80000C82812D3DFF83891A1
:102C50004FF48051484600F0A5FADAF80000DC286D
:102C600007D34FF48051484600F0A0FA1420CAF868
:102C700000009BF800104048017067E0DFF8F89012
:102C8000DFF800B199F800008BF800009BF8000015
:102C900080B200F0B7FC99F800109BF80000814268
:102CA00008D099F800008BF800009BF8000080B273
:102CB00000F0A8FC9BF800000A2807DB9BF8000046
:102CC00033281FDB9BF8000050281BDADFF89890B0
:102CD000D9F80000B0F57A7F34D3DFF8ACA04FF418
:102CE0008051504600F05EFAD9F80000B0F57F7FC1
:102CF00028D34FF48051504600F058FA1420C9F8F8
:102D000000001FE09BF8000050281BDBDFF858A0F4
:102D1000DAF80000B0F5FA6F14D3DFF86C904FF4D6
:102D20008051484600F03EFADAF8001040F2E470B4
:102D3000814207D34FF48051484600F037FA1420FF
:102D4000CAF800009BF80000FFF73CFE04210F4882
:102D500000F030FA00287FF4AEAE7F210948017000
:102D60007F2005490870A6E6A4650020A065002024
:102D70001000002000040240B5650020000C024055
:102D8000B4650020B3650020000002400018024036
:102D900010B5DFF874420121200000F003FA02218F
:102DA000200000F0FFF91021200000F0FBF90520C1
:102DB00000F0A2FC1021200000F0F8F9052000F03E
:102DC0009BFC1021200000F0EDF90221200000F012
:102DD000E9F9052000F090FC0221200000F0E6F95E
:102DE000112000F066F8142000F086FCB12000F0FD
:102DF00060F8052000F069F83C2000F066F83C20FF
:102E000000F063F8B22000F054F8052000F05DF8FF
:102E10003C2000F05AF83C2000F057F8B32000F0B6
:102E200048F8052000F051F83C2000F04EF83C2016
:102E300000F04BF8052000F048F83C2000F045F881
:102E40003C2000F042F8B42000F033F8032000F0FA
:102E50003CF83A2000F02DF8052000F036F820204C
:102E600000F027F8132000F024F8262000F021F8C5
:102E7000012000F02AF8292000F01BF8362000F08D
:102E800018F8702000F021F8002000F05BF810BD69
:102E90000100DFF8380202689207FAD5DFF8302225
:102EA0000B00DBB213600368DB07FCD51068C0B20F
:102EB000704710B504000821DFF84C0100F076F9E6
:102EC0002000C0B2FFF7E4FF10BD10B504000821D8
:102ED000DFF8340100F066F92000C0B2FFF7D8FF38
:102EE00010BD10B504000821DFF81C0100F05AF9EC
:102EF000200080B2000AC0B2FFF7CAFF2000C0B2B3
:102F0000FFF7C6FF10BDF8B507000C0015001E0046
:102F10002A20FFF7CEFF380080B2FFF7E2FF28003B
:102F200080B2FFF7DEFF2B20FFF7C3FF200080B247
:102F3000FFF7D7FF300080B2FFF7D3FF2C20FFF759
:102F4000B8FFF1BD70B504007F239F22002100204F
:102F5000FFF7D9FF0025280080B2A0280DDA002055
:102F60000600300080B2802805DA200080B2FFF72A
:102F7000B8FF761CF5E76D1CEDE770BD2DE9F84F45
:102F800083460D0016001F000A9C5FF0000A5046A1
:102F9000C0B2102835DA55FA8AF39BB21BF107024A
:102FA00092B255FA8AF189B2584680B2FFF7ABFF68
:102FB000DFF820013100C9B2090101445046C0B216
:102FC0000844B0F5007000788146002080464046F5
:102FD000C0B2082812DA5FEAC97004D5380080B29E
:102FE000FFF77FFF03E0200080B2FFF77AFF5FFA70
:102FF00089F95FEA590918F10108E8E71AF1010AAD
:10300000C5E7BDE8F18F0000000C02402DE9FE434A
:1030100007000C0015001E00290089B242F2107052
:1030200091FBF0F08DF80400290089B24FF47A701A
:1030300091FBF0F20A200DF1040892FBF0F100FB85
:10304000112288F80120290089B2642091FBF0F058
:103050000A2290FBF2F102FB11008DF80600290014
:1030600089B20A2091FBF0F00A2290FBF2F102FBF8
:1030700011008DF80700280080B20A2290FBF2F1BF
:1030800002FB11008DF808005FF000094846C0B24D
:10309000052819DABDF82800009033009BB2484695
:1030A000C0B218F800203032D2B2A4B2210189B2E5
:1030B0004846C0B2401CC00010FA87F080B2FFF74B
:1030C0005DFF19F10109E1E7BDE8F7830850014010
:1030D0000C500140D01D0008F0B4D0F800C010F131
:1030E0000C04256800263400A4B2102C23D21C0046
:1030F000F440E4071DD503273400E4B2640017FA56
:1031000004F43CEA040C6446B4465FFA8CFC5FEAC3
:103110004C0C11FA0CFC5CEA040C3400E4B26400C0
:10312000A740BD432C003500EDB26D0012FA05F545
:103130002543761CD7E7C0F800C010F10C042560C9
:10314000F0BC7047F0B40C00E4B2012C05D1041DB2
:1031500025681D43041D256004E0041D25689D436A
:10316000041D256010F10804266800252C00A4B277
:10317000102C12D21C00EC40E4070CD503272C00C5
:10318000E4B26400A740BE4334002E00F6B27600DD
:1031900012FA06F626436D1CE8E710F108042660D3
:1031A000F0BC704710F118021160704710F128024E
:1031B00011607047020012F110000068084201D04F
:1031C000012000E000207047F0B410F120031D68DA
:1031D00010F124031C6800273B009BB2082B12D27D
:1031E0001300FB40DB070CD50F263B00DBB29B0036
:1031F0009E40B5432B003D00EDB2AD0011FA05F540
:103200001D437F1CE8E7082633009BB2102B14D225
:103210001300F340DB070ED50F2716F1F803DBB2DE
:103220009B009F40BC43230016F1F804E4B2A400C5
:1032300011FA04F41C43761CE6E710F120031D602C
:1032400010F124031C60F0BC704710F12C021160D7
:103250007047000010B4DFF82421010009B212EB1E
:1032600091110B68012410F01F018C4023430100D1
:1032700009B212EB9112136010BC70472DE9F04FA8
:103280008DB00500002409A83F491022FDF7B6FFC4
:1032900007AB3E48D0E90021C3E9002105AB3C481B
:1032A000D0E90021C3E90021354A1068C0F381014B
:1032B000002903D0022905D002D329E0354B28E0AC
:1032C000354B26E02F48036813F03F03049303684F
:1032D000C3F3881303930368C3F301435B1C5B00D0
:1032E0000193006810F4800002900298B0F5800FFE
:1032F00002D12948009001E026480090009B0498E4
:10330000B3FBF0F3039843430198B3FBF0F300E001
:10331000204B1068C0F3031A09A810F80A001E0019
:10332000C6401768C7F3822C07AF17F80CE03700C8
:1033300037FA0EF71268C2F342320DF1140818F88A
:103340000280B14639FA08F9AB465FFA8BFBBBF154
:10335000000F07D0BBF1020F08D005D3BBF1030F5C
:1033600006D007E01C0005E0340003E03C0001E06B
:103370004C46FFE720000DB0BDE8F08F003802405A
:10338000083802400438024098470008B84700084F
:10339000C04700080024F40000127A00354A0243B6
:1033A00035490A6070472DE9F84304000D00160006
:1033B00000275FF000085FF000092F48016811F452
:1033C000E061B1F5E06F02D10021042229E001683B
:1033D00011F4E061B1F5C06F02D10121032220E0B8
:1033E000016811F4E061B1F5A06F02D1022102225F
:1033F00017E0016811F4E061B1F5806F02D103219B
:1034000001220EE0006810F4E060B0F5407F02D1C8
:103410000421002205E04FF4A060FFF7BFFF022166
:1034200002222B00DBB2D1F104008340B6465FFAE2
:103430008EFE5FF00F0CD2F104003CFA00FC1CEA97
:103440000E0E5EEA03031B01DFF830C02000C0B29D
:103450000CF800305FF0010C14F01F001CFA00FCA7
:10346000DFF81CE02000C0B240114EF820C0BDE8DB
:10347000F18300000000FA050CED00E000E400E03C
:1034800000E100E070B40D00EDB204220F2395FBC3
:10349000F2F402FB1455EDB2AA009340DB430E0098
:1034A000F6B204220400E4B296FBF2F502FB1566C4
:1034B000F6B2B20094400D00EDB2042295FBF2F298
:1034C000002A05D0022A13D00AD3032A18D01FE0FD
:1034D000104A15681D40156015682543156017E0F2
:1034E0000D4A15681D4015601568254315600FE0ED
:1034F0000A4A15681D40156015682543156007E0E8
:10350000074A15681D401560156825431560FFE7DB
:1035100070BC7047083801400C3801401038014039
:1035200014380140F0B4254B1C6884431C60244CC3
:10353000256885432560234D2E6886432E60224EE4
:103540003768874337600F00FFB2002F02D0012F8A
:1035500004D007E01C6804431C6003E023680343B5
:103560002360FFE71300DBB2002B03D0022B0FD048
:1035700007D314E02B6803432B6033688343336025
:103580000DE02B6883432B6033680343336006E010
:103590002B6803432B60336803433360FFE7F0BCC1
:1035A0007047010009480068084201D0012000E08E
:1035B000002070470549086070470000003C01404A
:1035C000043C0140083C01400C3C0140143C0140DB
:1035D00038B500F0ADF8FF208DF800006D4668703A
:1035E00004242100C9B2684600F0D8F800208DF804
:1035F00000000020687006252900C9B2684600F066
:10360000CDF831BDF8B5040014250226FF208DF851
:1036100000006F4678703100C9B2684600F0BEF80D
:103620002800451E80B20028FAD110211048FFF76B
:10363000BDFD210089B24FF480730E4891FBF3F277
:1036400003FB1211102291FBF2F1415C8DF8001086
:1036500023009BB2102193FBF1F201FB1233C05CFB
:1036600078703100C9B2684600F098F8F1BD0000EA
:10367000001802400000002010B4020052B2002ADC
:1036800009D50A01234C03005BB213F00F03234456
:1036900003F8042C04E00C011F4B020052B29C54AE
:1036A00010BC704710B50400601EB0F1807F01D3DC
:1036B00001200EE0611E194801600F215FF0FF300C
:1036C000FFF7DAFF00211648016007211548016065
:1036D000002010BD80B5144801684FF47A70B1FB2A
:1036E000F0F0FFF7DFFF002800D0FEE700215FF0D9
:1036F000FF30FFF7C1FF01BD0C4A106011680029BF
:10370000FCD1704709490868002802D00868401EAB
:103710000860704718ED00E000E400E014E000E00D
:1037200018E000E010E000E014000020A865002090
:1037300010B540F60540FFF78DFD41F21600FFF78A
:1037400089FDDFF80C41032204212000FFF73CFD36
:103750000323012202212000FFF7BEFC03230222E3
:1037600001212000FFF7EEFCDFF8E8400022DFF83F
:10377000E810200000F072F8402300220021200011
:1037800000F007F9200000F027F94FF480612000D5
:1037900000F00FF9200000F034F910BDF8B5070073
:1037A0000C00DFF8B05040F20161280000F032F95F
:1037B0000028F6D1280000F014F94FF4A061280089
:1037C00000F028F90028F8D07FF0010240212800FD
:1037D00000F0F6F840F201563100280000F01AF926
:1037E0000028F7D03100280000F024F940F20751FA
:1037F000280000F00FF90128F8D12100C9B22800F3
:1038000000F0F9F840F202563100280000F002F909
:103810000028F7D03978280000F0EDF831002800B2
:1038200000F0F8F80028F9D07F1C3978280000F063
:10383000E2F83100280000F0EDF80028F9D0280067
:1038400000F0D4F8034800688005FBD4F1BD000007
:10385000001402400058004000350C002DE9F041F2
:1038600005000E0014000220FFF708FDDFF8081223
:10387000B0FBF1F23C2A01D33C210A00291D0B6860
:103880009B099B011343291D0B60DFF8F0118E4249
:1038900032D2DFF8E411B0FBF1F1491C8846B8F1EF
:1038A0003C0F06D35FF03C0C15F12001C1F800C0BD
:1038B0000DE0B8F1030F06D25FF0020C15F1200104
:1038C000C1F800C003E015F12001C1F800807100CB
:1038D000B0FBF1F10F00042F01D204210F0015F10C
:1038E0001C01D1F800C03905090D51EA0C0C15F185
:1038F0001C01C1F800C04AE0DFF884118E4246D2B4
:103900004FF4967C0CFB02FC4FF47A71BCFBF1F196
:10391000491C15F1200CCCF80010002C0FD103210C
:1039200001FB06F1B0FBF1F10F0015F11C01096874
:1039300031F4804115F11C0CCCF800100FE0192176
:1039400001FB06F1B0FBF1F10F0015F11C01D1F8FC
:1039500000C05CF4804C15F11C01C1F800C03905B1
:1039600001D157F0010715F11C01D1F800C05CF43A
:10397000004C15F11C01C1F800C015F11C01D1F873
:1039800000C057EA0C0C15F11C01C1F800C0BDE8DD
:10399000F081F0B40027046834F002040C430460A2
:1039A0009B059B0D53EA020510F108063560F0BC3B
:1039B00070470023026832F480620A430260704755
:1039C00012F1020F02D14908490001E051F0010152
:1039D00010F1100319607047016851F00101016096
:1039E0007047016851F4807101607047016851F4BB
:1039F0000071016070470B00DBB210F11002136020
:103A0000704710F124010A6832F0100210F124010D
:103A10000A6070470200080000B2C0F389108018E5
:103A2000036811F01F00C340D80701D5012000E052
:103A30000020704730B40B0040F201521BB2934299
:103A400006D110F11402126810F11802126810E089
:103A50000A0012B2C2F389131B180A0012B2C2F391
:103A6000891212181568012411F01F029440A54311
:103A70001D6030BC7047000040420F00A18601006D
:103A8000811A060010B40B8810F128021360DFF8C9
:103A9000C030984212D0B0F1804F0FD0DFF89C2098
:103AA00090420BD0DFF89820904207D0DFF89420A6
:103AB000904203D0DFF89C2090420BD1026832F094
:103AC0007002026004684A881443046004688A88AB
:103AD000144304608C6810F12C021460DFF8682035
:103AE00090420BD0DFF86420904207D0026832F495
:103AF000407202600468CA8814430460984203D08C
:103B0000DFF85020904203D10B7B10F1300213609C
:103B100010F11402136853F0010310F11402136042
:103B200010BC7047016851F001010160704701004D
:103B3000002211F1240000687047000000040040DA
:103B400000080040000C004000100040001400403D
:103B5000000001400004014010F10802136833F036
:103B6000700310F10802136010F1080213680B4390
:103B700010F108021360704730B410F10804256892
:103B800035F43F4510F10804256010F1080425685C
:103B90000D43154310F10804256010F10804256851
:103BA00055EA032510F10804256030BC7047F8B5CC
:103BB00004000D0016001F00602D42D114F12000FA
:103BC000016831F0100114F12000016014F12000AF
:103BD000016831F0A00114F12000016014F120000F
:103BE0000068310089B250EA011014F12001086028
:103BF00014F11800016831F4407114F118000160EB
:103C000014F11800006850F4807014F11801086075
:103C100014F11800016831F4704114F118000160CA
:103C200014F11800016851EA073114F1180001601D
:103C300014F12000016851F0100114F1200001601E
:103C400040E014F1200001684908490014F1200007
:103C5000016014F12000016831F00A0114F1200024
:103C6000016014F120000168300080B2014314F1BA
:103C70002000016014F1180001688908890014F11E
:103C80001800016014F11800016851F0010114F1ED
:103C90001800016014F11800016831F0F00114F10E
:103CA0001800016014F11800016851EA071114F1BD
:103CB0001800016014F12000016851F0010114F1B5
:103CC0002000016029002000FFF746FF14F10800E2
:103CD0000168C908C90014F10800016014F1080066
:103CE000006850F0070014F108010860F1BDF8B554
:103CF00004000D0016001F003B00320029002000C8
:103D0000FFF73AFF14F10800016831F0770114F170
:103D10000800016014F10800016851F0770114F106
:103D200008000160F1BD030013F10C0002680A40B5
:103D300013F110000068084203D0002A01D00120CE
:103D400000E000207047CB4310F110021360704771
:103D5000F8B54FF44060FFF77DFA40F60140FFF7F9
:103D600079FA40F60240FFF775FA40F60340FFF794
:103D700071FA40F60440FFF76DFA40F60540FFF790
:103D800069FA40F60640FFF765FA524F4FF4604378
:103D9000002200213800FFF79FF94F4C4FF41E43DB
:103DA000002200212000FFF797F94C4D4FF4E273F9
:103DB000002200212800FFF78FF9494E4FF48C5361
:103DC000002201213000FFF787F94FF48C530222C3
:103DD00000213000FFF7B6F980213000FFF7E2F94B
:103DE0004FF480713000FFF7E1F94FF4805130005B
:103DF000FFF7DCF92323002201213800FFF76CF9DB
:103E00002323022200213800FFF79CF9012138000A
:103E1000FFF7C8F902213800FFF7C4F92021380064
:103E2000FFF7C4F92F4E4FF4005300220121300058
:103E3000FFF752F94FF40053022200213000FFF740
:103E400081F94FF400513000FFF7B0F99B230022B5
:103E500001212000FFF740F99B23022200212000CE
:103E6000FFF770F91B212000FFF7A0F98021200047
:103E7000FFF79CF91C4C4FF4006300220121200045
:103E8000FFF72AF94FF40063022200212000FFF718
:103E900059F94FF400612000FFF788F948F218043F
:103EA0002300002201212800FFF716F92300022237
:103EB00000212800FFF746F908212800FFF776F9CE
:103EC00010212800FFF772F94FF400412800FFF796
:103ED0006DF9F1BD00040240000C024000180240E0
:103EE00000000240000802400014024080B54B4927
:103EF000086850F4700008604949086850F00100F3
:103F0000086008688007FCD5464A106850F08000B9
:103F10001060002000900098502803D20098401CA8
:103F20000090F8E7106850F09000106000200090BA
:103F30000098502803D20098401C0090F8E71068C1
:103F40008008800010600B68374803400B600868E9
:103F500030F4802008600020106010683348344935
:103F6000086000213348016000F001F801BD80B510
:103F700000F001F801BD70B400210020284A136848
:103F800053F480331360491C136813F40033180092
:103F9000002803D14FF6FF739942F4D113689B03B5
:103FA00000D4FEE7244C236853F080532360234B56
:103FB0001C6854F440441C601A4C25682560256830
:103FC00055F400452560256855F4A05525601C4E24
:103FD000174D2E60156855F0807515601568AD0198
:103FE000FCD51A6852F480321A60164A1568ED033F
:103FF000FBD51D6855F400351D6013689B03FCD587
:104000002268920892002260226852F00202226026
:1040100022681207FCD570BC7047000088ED00E0F4
:104020000038024008380240FFFFF6FE103000243E
:10403000043802400C380240403802400070004012
:104040000878400A04700040F8B53D4D2022072151
:104050002800FEF71BFB00286ED007212800FEF782
:10406000EDFA01213848017001213448FFF7EDF8DD
:104070003649087800282FD1002006003000C0B251
:10408000702829DA002004002000C0B2A02821DA1C
:104090002F4B3200D2B2A02042431A442300DBB29D
:1040A0003700FFB277204743702097FBF0F7FFB24D
:1040B0005FF0BC0CA6465FFA8EFEBB2000FB0EFE36
:1040C0009F209EFBF0F00CFB07071E48C05DD054FC
:1040D000641CD9E7761CD1E70878022823D1002098
:1040E00006003000C0B228281DDA0020040020009D
:1040F000C0B2BC2815DABC2016493200D2B2424305
:1041000011442200D2B20F4B3700FFB200FB07F080
:1041100050FA84F0184410F5EB5000788854641C71
:10412000E5E7761CDDE7202207212800FEF703FCE7
:1041300007212800FEF770FAF1BD000000040240DC
:104140000064024000000320B26500204801002006
:104150004C0100204C47002018B587B040F60440C1
:10416000FFF778F841F21410FFF774F8324C4FF46F
:10417000A04206212000FFF727F84FF4A0430022B9
:1041800002212000FEF7A8FF4FF4A04302220021E5
:104190002000FEF7D7FF002001904FF482700090BE
:1041A00000200290002005904FF400700390002042
:1041B000069000200490214C6946200000F044F84D
:1041C0000021200000F063F8200000F05BF800F010
:1041D00002F808B010BD18B589B040F61640FFF7D8
:1041E00039F8174C04212000FEF7EAF84020069029
:1041F0000020029000200390002004904FF4204003
:10420000079010480090012001905FF44030089022
:104210006A4604212000FEF73BF904212000FEF746
:10422000E9F9022204212000FEF71AFA04212000F5
:10423000FEF704FA0AB010BD001002400050014021
:10424000006402400C50014030B40023046814F4B0
:1042500041540A6814434A6814438A681443CA687C
:1042600014430A6914434A6914438A691443046075
:1042700010F11C02156835F4006510F11C02156080
:1042800030BC7047016851F04001016070470A007E
:10429000D2B2002A06D1021D136853F00203021D98
:1042A000136005E0021D136853F00103021D136043
:1042B0007047000010B52E4C01212000FFF733FDA0
:1042C000012810D12B480188491C018001880B2945
:1042D00005DB0021018002212748FEF7B6FF0121FE
:1042E0002000FFF730FD10BD1FB540F60340FEF77C
:1042F000B1FF41F20200FEF7ADFF1B4C4FF400533B
:10430000012202212000FEF7E7FE4FF400530222B3
:1043100000212000FEF716FF4FF40052022120007A
:10432000FEF752FF4FF6FF7002900020ADF800003C
:104330000020ADF806000020ADF804000B4C6946E3
:104340002000FFF79FFB0523002200212000FFF73C
:10435000CEFC0523002260212000FFF728FC20006E
:10436000FFF7E0FB1FBD0000000C0240000800400A
:1043700000140040B065002000040240F8B50D00B4
:10438000164611D1012818BF10F1010F0AD1284992
:104390000A6D3AB100230B65012000F04BF810F1D3
:1043A000010F40D00020F2BD012803D0BDE8F84045
:1043B00000F040B8502E1E4F13D93A6D42B1002084
:1043C00038653946012000F035F810F1010F2AD088
:1043D00032462946012000F02DF810F1010F25D1B9
:1043E00021E0344614B33A6D002007EB020C502A4A
:1043F0000BD215F8013B0A2B08BF0120521C641E8A
:104400000CF8013BF3D13A6501E03A6514B968B1A3
:10441000002AE7D0002038653946012000F00AF86C
:1044200010F1010FDED14FF0FF30F2BD3046F2BD8A
:10443000AC640020F8B507000D001400002D01D178
:10444000002011E0002C0ED0084E297889B23000EF
:1044500000F00EF86D1C0721300000F010F8002865
:10446000F9D0641EEEE72000F2BD00BF0048004016
:104470000B009BB2DB05DB0D021D136070470200D1
:10448000080000B2C0F389108018036811F01F0003
:10449000C340D80701D5012000E00020704700008C
:1044A0007047FEE7FEE7FEE7FEE77047704770479C
:1044B00080B5FFF727F923490868401C086001BD53
:1044C00080B54FF48040FFF76CF8002815D04FF40A
:1044D00000511D48FEF76EFE002807D11B480178E9
:1044E000FF290AD00178491C017006E017490878B5
:1044F000002802D00878401E08704FF40050FFF7E3
:1045000050F8002815D04FF480410F48FEF752FEB6
:10451000012807D10D480178FF290AD00178491CEC
:10452000017006E009490878002802D00878401E8A
:1045300008704FF48040FFF73DF84FF40050FFF74C
:1045400039F801BDA465002000040240B5650020D3
:1045500080B5FFF7BFF8FFF7FBFBFFF7FDFDFFF7A7
:1045600037F8FFF7C1FE01BD10B5FFF7F1FFFFF708
:10457000F3FDFEF70DFCFEF765FA0C4908681423FD
:10458000B0FBF3F203FB12000028F4D10020086016
:1045900080210748FEF759FE0648FFF7C8FA0400D5
:1045A000210089B2044800F009F8E4E7A46500207E
:1045B0000000024000080040844700080EB41EB509
:1045C000024605A801900024009401AB0121044893
:1045D00078440C30FBF7EDFD03B010BC5DF810FB28
:1045E0008D01000080B50D4B7B4430330C4A7A447A
:1045F0002E32934203D00B49AFF3008002BD8DF8F9
:104600000000012269460120FFF7B8FE012802D10F
:104610009DF8000002BD4FF0FF3002BDE4B9FFF786
:10462000E0B9FFF79800002038B50E4D082428683F
:1046300000281CBF017811F0030F03D090F903107C
:10464000002903D52D1D641EF1D102E0AFF30080D7
:10465000F8E7BDE83840002200214FF0FF30FFF7B7
:104660008DBE00BF2801002030B4002412E050F8B5
:10467000043BDA0744BF4B445B1E091F042943F87F
:10468000044BFAD21A468D0744BF1C80921CCB07FC
:1046900048BF147050F8041B0029E8D130BC7047A3
:1046A00010B5034A7A440832024C7C44A41D03E04E
:1046B000400000006400000004E01168101D114477
:1046C00088470246A242F8D110BD00004EF688513C
:1046D000CEF20001086840F470000860BFF34F8F0D
:1046E000BFF36F8F4FF00170E1EE100A70470000CA
:1046F00079FFFFFF20580000000003206C640000D9
:104700004C010020000000006FC9FFFF14020000F0
:10471000FE0000000000002000F00DF8002801D08D
:10472000FFF7BEFFAFF300800020AFF30080FFF77C
:104730001BFF00F002F80120704700F001B80000F4
:104740000746FFF771FF3846FDF738FBFBE700002F
:104750000548014603B4684680F30988AFF300803A
:10476000FFF7B4FFFFF7D8FFA5EDF5FE38B5054616
:104770000C462046FFF736FFA04218BF002528460A
:1047800032BD0000636F756E7465722076616C7562
:10479000653A2025640A0D000000000000000000BA
:1047A0000102030406070809014880470148004741
:1047B000ED3E00085147000800000000010203041C
:1047C0000000000001020304FFF7FEBFFFF7FEBF79
:1047D000FFF7FEBFFFF7FEBFFFF7FEBFFFF7FEBF0D
:1047E000FFF7FEBFFFF7FEBFFFF7FEBFFFF7FEBFFD
:1047F000FFF7FEBFFFF7FEBFFFF7FEBFFFF7FEBFED
:10480000FFF7FEBFFFF7FEBFFFF7FEBFFFF7FEBFDC
:10481000FFF7FEBFFFF7FEBFFFF7FEBFFFF7FEBFCC
:10482000FFF7FEBFFFF7FEBFFFF7FEBFFFF7FEBFBC
:10483000FFF7FEBFFFF7FEBFFFF7FEBFFFF7FEBFAC
:10484000FFF7FEBFFFF7FEBFFFF7FEBFFFF7FEBF9C
:10485000FFF7FEBFFFF7FEBFFFF7FEBFFFF7FEBF8C
:10486000FFF7FEBFFFF7FEBFFFF7FEBFFFF7FEBF7C
:10487000FFF7FEBFFFF7FEBFFFF7FEBFFFF7FEBF6C
:10488000FFF7FEBFFFF7FEBFFFF7FEBFFFF7FEBF5C
:10489000FFF7FEBFFFF7FEBFFFF7FEBFFFF7FEBF4C
:1048A000FFF7FEBFFFF7FEBFFFF7FEBFFFF7FEBF3C
:1048B000FFF7FEBFFFF7FEBFFFF7FEBFFFF7FEBF2C
:1048C000FFF7FEBFFFF7FEBFFFF7FEBFFFF7FEBF1C
:1048D000FFF7FEBFFFF7FEBFFFF7FEBFFFF7FEBF0C
:1048E000FFF7FEBFFFF7FEBFFFF7FEBFFFF7FEBFFC
:1048F000FFF7FEBFFFF7FEBFFFF7FEBFFFF7FEBFEC
:10490000FFF7FEBFFFF7FEBFFFF7FEBFFFF7FEBFDB
:10491000FFF7FEBFFFF7FEBFFFF7FEBFFFF7FEBFCB
:10492000101081E74943271311C70103053179614D
:10493000191D140001F005071C4E0E821100080419
:1049400052FF01F2000A1410090000010400009453
:1049500000002095045294042153A10852800CF1C8
:104960000B0110070204010150650020A004525001
:10497000042134610812DC44F213C84860020802C2
:10498000020040610421015108F0041124010020BB
:0F49900010014812506C129804F206E0740202F3
:040000050800475157
:00000001FF
